{
  "_format": "hh-sol-artifact-1",
  "contractName": "Stablecoin",
  "sourceName": "contracts/Stablecoin.sol",
  "abi": [
    {
      "inputs": [
        {
          "internalType": "string",
          "name": "name_",
          "type": "string"
        },
        {
          "internalType": "string",
          "name": "symbol_",
          "type": "string"
        },
        {
          "internalType": "uint8",
          "name": "decimals_",
          "type": "uint8"
        }
      ],
      "stateMutability": "nonpayable",
      "type": "constructor"
    },
    {
      "anonymous": false,
      "inputs": [
        {
          "indexed": true,
          "internalType": "address",
          "name": "owner",
          "type": "address"
        },
        {
          "indexed": true,
          "internalType": "address",
          "name": "spender",
          "type": "address"
        },
        {
          "indexed": false,
          "internalType": "uint256",
          "name": "value",
          "type": "uint256"
        }
      ],
      "name": "Approval",
      "type": "event"
    },
    {
      "anonymous": false,
      "inputs": [
        {
          "indexed": true,
          "internalType": "address",
          "name": "previousOwner",
          "type": "address"
        },
        {
          "indexed": true,
          "internalType": "address",
          "name": "newOwner",
          "type": "address"
        }
      ],
      "name": "OwnershipTransferred",
      "type": "event"
    },
    {
      "anonymous": false,
      "inputs": [
        {
          "indexed": true,
          "internalType": "bytes32",
          "name": "role",
          "type": "bytes32"
        },
        {
          "indexed": true,
          "internalType": "bytes32",
          "name": "previousAdminRole",
          "type": "bytes32"
        },
        {
          "indexed": true,
          "internalType": "bytes32",
          "name": "newAdminRole",
          "type": "bytes32"
        }
      ],
      "name": "RoleAdminChanged",
      "type": "event"
    },
    {
      "anonymous": false,
      "inputs": [
        {
          "indexed": true,
          "internalType": "bytes32",
          "name": "role",
          "type": "bytes32"
        },
        {
          "indexed": true,
          "internalType": "address",
          "name": "account",
          "type": "address"
        },
        {
          "indexed": true,
          "internalType": "address",
          "name": "sender",
          "type": "address"
        }
      ],
      "name": "RoleGranted",
      "type": "event"
    },
    {
      "anonymous": false,
      "inputs": [
        {
          "indexed": true,
          "internalType": "bytes32",
          "name": "role",
          "type": "bytes32"
        },
        {
          "indexed": true,
          "internalType": "address",
          "name": "account",
          "type": "address"
        },
        {
          "indexed": true,
          "internalType": "address",
          "name": "sender",
          "type": "address"
        }
      ],
      "name": "RoleRevoked",
      "type": "event"
    },
    {
      "anonymous": false,
      "inputs": [
        {
          "indexed": true,
          "internalType": "address",
          "name": "from",
          "type": "address"
        },
        {
          "indexed": true,
          "internalType": "address",
          "name": "to",
          "type": "address"
        },
        {
          "indexed": false,
          "internalType": "uint256",
          "name": "value",
          "type": "uint256"
        }
      ],
      "name": "Transfer",
      "type": "event"
    },
    {
      "inputs": [],
      "name": "DEFAULT_ADMIN_ROLE",
      "outputs": [
        {
          "internalType": "bytes32",
          "name": "",
          "type": "bytes32"
        }
      ],
      "stateMutability": "view",
      "type": "function"
    },
    {
      "inputs": [],
      "name": "MINTER_ROLE",
      "outputs": [
        {
          "internalType": "bytes32",
          "name": "",
          "type": "bytes32"
        }
      ],
      "stateMutability": "view",
      "type": "function"
    },
    {
      "inputs": [
        {
          "internalType": "address",
          "name": "owner",
          "type": "address"
        },
        {
          "internalType": "address",
          "name": "spender",
          "type": "address"
        }
      ],
      "name": "allowance",
      "outputs": [
        {
          "internalType": "uint256",
          "name": "",
          "type": "uint256"
        }
      ],
      "stateMutability": "view",
      "type": "function"
    },
    {
      "inputs": [
        {
          "internalType": "address",
          "name": "spender",
          "type": "address"
        },
        {
          "internalType": "uint256",
          "name": "amount",
          "type": "uint256"
        }
      ],
      "name": "approve",
      "outputs": [
        {
          "internalType": "bool",
          "name": "",
          "type": "bool"
        }
      ],
      "stateMutability": "nonpayable",
      "type": "function"
    },
    {
      "inputs": [
        {
          "internalType": "address",
          "name": "account",
          "type": "address"
        }
      ],
      "name": "balanceOf",
      "outputs": [
        {
          "internalType": "uint256",
          "name": "",
          "type": "uint256"
        }
      ],
      "stateMutability": "view",
      "type": "function"
    },
    {
      "inputs": [],
      "name": "decimals",
      "outputs": [
        {
          "internalType": "uint8",
          "name": "",
          "type": "uint8"
        }
      ],
      "stateMutability": "view",
      "type": "function"
    },
    {
      "inputs": [
        {
          "internalType": "address",
          "name": "spender",
          "type": "address"
        },
        {
          "internalType": "uint256",
          "name": "subtractedValue",
          "type": "uint256"
        }
      ],
      "name": "decreaseAllowance",
      "outputs": [
        {
          "internalType": "bool",
          "name": "",
          "type": "bool"
        }
      ],
      "stateMutability": "nonpayable",
      "type": "function"
    },
    {
      "inputs": [
        {
          "internalType": "bytes32",
          "name": "role",
          "type": "bytes32"
        }
      ],
      "name": "getRoleAdmin",
      "outputs": [
        {
          "internalType": "bytes32",
          "name": "",
          "type": "bytes32"
        }
      ],
      "stateMutability": "view",
      "type": "function"
    },
    {
      "inputs": [
        {
          "internalType": "bytes32",
          "name": "role",
          "type": "bytes32"
        },
        {
          "internalType": "address",
          "name": "account",
          "type": "address"
        }
      ],
      "name": "grantRole",
      "outputs": [],
      "stateMutability": "nonpayable",
      "type": "function"
    },
    {
      "inputs": [
        {
          "internalType": "bytes32",
          "name": "role",
          "type": "bytes32"
        },
        {
          "internalType": "address",
          "name": "account",
          "type": "address"
        }
      ],
      "name": "hasRole",
      "outputs": [
        {
          "internalType": "bool",
          "name": "",
          "type": "bool"
        }
      ],
      "stateMutability": "view",
      "type": "function"
    },
    {
      "inputs": [
        {
          "internalType": "address",
          "name": "spender",
          "type": "address"
        },
        {
          "internalType": "uint256",
          "name": "addedValue",
          "type": "uint256"
        }
      ],
      "name": "increaseAllowance",
      "outputs": [
        {
          "internalType": "bool",
          "name": "",
          "type": "bool"
        }
      ],
      "stateMutability": "nonpayable",
      "type": "function"
    },
    {
      "inputs": [],
      "name": "name",
      "outputs": [
        {
          "internalType": "string",
          "name": "",
          "type": "string"
        }
      ],
      "stateMutability": "view",
      "type": "function"
    },
    {
      "inputs": [],
      "name": "owner",
      "outputs": [
        {
          "internalType": "address",
          "name": "",
          "type": "address"
        }
      ],
      "stateMutability": "view",
      "type": "function"
    },
    {
      "inputs": [],
      "name": "renounceOwnership",
      "outputs": [],
      "stateMutability": "nonpayable",
      "type": "function"
    },
    {
      "inputs": [
        {
          "internalType": "bytes32",
          "name": "role",
          "type": "bytes32"
        },
        {
          "internalType": "address",
          "name": "account",
          "type": "address"
        }
      ],
      "name": "renounceRole",
      "outputs": [],
      "stateMutability": "nonpayable",
      "type": "function"
    },
    {
      "inputs": [
        {
          "internalType": "bytes32",
          "name": "role",
          "type": "bytes32"
        },
        {
          "internalType": "address",
          "name": "account",
          "type": "address"
        }
      ],
      "name": "revokeRole",
      "outputs": [],
      "stateMutability": "nonpayable",
      "type": "function"
    },
    {
      "inputs": [
        {
          "internalType": "bytes4",
          "name": "interfaceId",
          "type": "bytes4"
        }
      ],
      "name": "supportsInterface",
      "outputs": [
        {
          "internalType": "bool",
          "name": "",
          "type": "bool"
        }
      ],
      "stateMutability": "view",
      "type": "function"
    },
    {
      "inputs": [],
      "name": "symbol",
      "outputs": [
        {
          "internalType": "string",
          "name": "",
          "type": "string"
        }
      ],
      "stateMutability": "view",
      "type": "function"
    },
    {
      "inputs": [],
      "name": "totalSupply",
      "outputs": [
        {
          "internalType": "uint256",
          "name": "",
          "type": "uint256"
        }
      ],
      "stateMutability": "view",
      "type": "function"
    },
    {
      "inputs": [
        {
          "internalType": "address",
          "name": "to",
          "type": "address"
        },
        {
          "internalType": "uint256",
          "name": "amount",
          "type": "uint256"
        }
      ],
      "name": "transfer",
      "outputs": [
        {
          "internalType": "bool",
          "name": "",
          "type": "bool"
        }
      ],
      "stateMutability": "nonpayable",
      "type": "function"
    },
    {
      "inputs": [
        {
          "internalType": "address",
          "name": "from",
          "type": "address"
        },
        {
          "internalType": "address",
          "name": "to",
          "type": "address"
        },
        {
          "internalType": "uint256",
          "name": "amount",
          "type": "uint256"
        }
      ],
      "name": "transferFrom",
      "outputs": [
        {
          "internalType": "bool",
          "name": "",
          "type": "bool"
        }
      ],
      "stateMutability": "nonpayable",
      "type": "function"
    },
    {
      "inputs": [
        {
          "internalType": "address",
          "name": "newOwner",
          "type": "address"
        }
      ],
      "name": "transferOwnership",
      "outputs": [],
      "stateMutability": "nonpayable",
      "type": "function"
    }
  ],
  "bytecode": "0x60806040523480156200001157600080fd5b50604051620016803803806200168083398101604081905262000034916200038f565b6200004862000042620000c2565b620000c6565b82516200005d90600590602086019062000236565b5081516200007390600690602085019062000236565b506007805460ff191660ff83161790556200009e600080516020620016608339815191523362000118565b620000b96000805160206200166083398151915280620001a3565b50505062000463565b3390565b600180546001600160a01b038381166001600160a01b0319831681179093556040519116919082907f8be0079c531659141344cd1fd0a4f28419497f9722a3daafe3b4186f6b6457e090600090a35050565b620001248282620001f8565b6200019f576000828152602081815260408083206001600160a01b03851684529091529020805460ff191660011790556200015e620000c2565b6001600160a01b0316816001600160a01b0316837f2f8788117e7eff1d82e926ec794901d17c78024a50270940304540a733656f0d60405160405180910390a45b5050565b6000620001b08362000221565b600084815260208190526040808220600101859055519192508391839186917fbd79b86ffe0ab8e8776151514217cd7cacd52c909f66475c3af44e129f0b00ff9190a4505050565b6000918252602082815260408084206001600160a01b0393909316845291905290205460ff1690565b60009081526020819052604090206001015490565b828054620002449062000410565b90600052602060002090601f016020900481019282620002685760008555620002b3565b82601f106200028357805160ff1916838001178555620002b3565b82800160010185558215620002b3579182015b82811115620002b357825182559160200191906001019062000296565b50620002c1929150620002c5565b5090565b5b80821115620002c15760008155600101620002c6565b600082601f830112620002ed578081fd5b81516001600160401b03808211156200030a576200030a6200044d565b604051601f8301601f19908116603f011681019082821181831017156200033557620003356200044d565b8160405283815260209250868385880101111562000351578485fd5b8491505b8382101562000374578582018301518183018401529082019062000355565b838211156200038557848385830101525b9695505050505050565b600080600060608486031215620003a4578283fd5b83516001600160401b0380821115620003bb578485fd5b620003c987838801620002dc565b94506020860151915080821115620003df578384fd5b50620003ee86828701620002dc565b925050604084015160ff8116811462000405578182fd5b809150509250925092565b6002810460018216806200042557607f821691505b602082108114156200044757634e487b7160e01b600052602260045260246000fd5b50919050565b634e487b7160e01b600052604160045260246000fd5b6111ed80620004736000396000f3fe608060405234801561001057600080fd5b50600436106101425760003560e01c8063715018a6116100b8578063a457c2d71161007c578063a457c2d714610276578063a9059cbb14610289578063d53913931461029c578063d547741f146102a4578063dd62ed3e146102b7578063f2fde38b146102ca57610142565b8063715018a6146102365780638da5cb5b1461023e57806391d148541461025357806395d89b4114610266578063a217fddf1461026e57610142565b8063248a9ca31161010a578063248a9ca3146101c05780632f2ff15d146101d3578063313ce567146101e857806336568abe146101fd578063395093511461021057806370a082311461022357610142565b806301ffc9a71461014757806306fdde0314610170578063095ea7b31461018557806318160ddd1461019857806323b872dd146101ad575b600080fd5b61015a610155366004610d17565b6102dd565b6040516101679190610dc8565b60405180910390f35b61017861030a565b6040516101679190610ddc565b61015a610193366004610cb4565b61039c565b6101a06103be565b6040516101679190610dd3565b61015a6101bb366004610c79565b6103c4565b6101a06101ce366004610cdd565b6103f2565b6101e66101e1366004610cf5565b610407565b005b6101f0610428565b60405161016791906110de565b6101e661020b366004610cf5565b610431565b61015a61021e366004610cb4565b610480565b6101a0610231366004610c2d565b6104ac565b6101e66104c7565b6102466104db565b6040516101679190610db4565b61015a610261366004610cf5565b6104ea565b610178610513565b6101a0610522565b61015a610284366004610cb4565b610527565b61015a610297366004610cb4565b61056f565b6101a0610587565b6101e66102b2366004610cf5565b6105ab565b6101a06102c5366004610c47565b6105c7565b6101e66102d8366004610c2d565b6105f2565b60006001600160e01b03198216637965db0b60e01b148061030257506103028261062c565b90505b919050565b60606005805461031990611166565b80601f016020809104026020016040519081016040528092919081815260200182805461034590611166565b80156103925780601f1061036757610100808354040283529160200191610392565b820191906000526020600020905b81548152906001019060200180831161037557829003601f168201915b5050505050905090565b6000806103a7610645565b90506103b4818585610649565b5060019392505050565b60045490565b6000806103cf610645565b90506103dc8582856106fd565b6103e7858585610747565b506001949350505050565b60009081526020819052604090206001015490565b610410826103f2565b61041981610848565b6104238383610859565b505050565b60075460ff1690565b610439610645565b6001600160a01b0316816001600160a01b0316146104725760405162461bcd60e51b81526004016104699061108f565b60405180910390fd5b61047c82826108de565b5050565b60008061048b610645565b90506103b481858561049d85896105c7565b6104a791906110ec565b610649565b6001600160a01b031660009081526002602052604090205490565b6104cf610961565b6104d960006109a0565b565b6001546001600160a01b031690565b6000918252602082815260408084206001600160a01b0393909316845291905290205460ff1690565b60606006805461031990611166565b600081565b600080610532610645565b9050600061054082866105c7565b9050838110156105625760405162461bcd60e51b81526004016104699061104a565b6103e78286868403610649565b60008061057a610645565b90506103b4818585610747565b7f9f2df0fed2c77648de5860a4cc508cd0818c85b8b8a1ab4ceeef8d981c8956a681565b6105b4826103f2565b6105bd81610848565b61042383836108de565b6001600160a01b03918216600090815260036020908152604080832093909416825291909152205490565b6105fa610961565b6001600160a01b0381166106205760405162461bcd60e51b815260040161046990610e87565b610629816109a0565b50565b6001600160e01b031981166301ffc9a760e01b14919050565b3390565b6001600160a01b03831661066f5760405162461bcd60e51b815260040161046990611006565b6001600160a01b0382166106955760405162461bcd60e51b815260040161046990610ecd565b6001600160a01b0380841660008181526003602090815260408083209487168084529490915290819020849055517f8c5be1e5ebec7d5bd14f71427d1e84f3dd0314c0f7b2291e5b200ac8c7c3b925906106f0908590610dd3565b60405180910390a3505050565b600061070984846105c7565b9050600019811461074157818110156107345760405162461bcd60e51b815260040161046990610f0f565b6107418484848403610649565b50505050565b6001600160a01b03831661076d5760405162461bcd60e51b815260040161046990610fc1565b6001600160a01b0382166107935760405162461bcd60e51b815260040161046990610e44565b61079e838383610423565b6001600160a01b038316600090815260026020526040902054818110156107d75760405162461bcd60e51b815260040161046990610f46565b6001600160a01b0380851660008181526002602052604080822086860390559286168082529083902080548601905591517fddf252ad1be2c89b69c2b068fc378daa952ba7f163c4a11628f55a4df523b3ef90610835908690610dd3565b60405180910390a3610741848484610423565b61062981610854610645565b6109f2565b61086382826104ea565b61047c576000828152602081815260408083206001600160a01b03851684529091529020805460ff1916600117905561089a610645565b6001600160a01b0316816001600160a01b0316837f2f8788117e7eff1d82e926ec794901d17c78024a50270940304540a733656f0d60405160405180910390a45050565b6108e882826104ea565b1561047c576000828152602081815260408083206001600160a01b03851684529091529020805460ff1916905561091d610645565b6001600160a01b0316816001600160a01b0316837ff6391f5c32d9c69d2a47ea670b442974b53935d1edc7fd64eb21e047a839171b60405160405180910390a45050565b610969610645565b6001600160a01b031661097a6104db565b6001600160a01b0316146104d95760405162461bcd60e51b815260040161046990610f8c565b600180546001600160a01b038381166001600160a01b0319831681179093556040519116919082907f8be0079c531659141344cd1fd0a4f28419497f9722a3daafe3b4186f6b6457e090600090a35050565b6109fc82826104ea565b61047c57610a0981610a4b565b610a14836020610a5d565b604051602001610a25929190610d3f565b60408051601f198184030181529082905262461bcd60e51b825261046991600401610ddc565b60606103026001600160a01b03831660145b60606000610a6c836002611104565b610a779060026110ec565b67ffffffffffffffff811115610a9d57634e487b7160e01b600052604160045260246000fd5b6040519080825280601f01601f191660200182016040528015610ac7576020820181803683370190505b509050600360fc1b81600081518110610af057634e487b7160e01b600052603260045260246000fd5b60200101906001600160f81b031916908160001a905350600f60fb1b81600181518110610b2d57634e487b7160e01b600052603260045260246000fd5b60200101906001600160f81b031916908160001a9053506000610b51846002611104565b610b5c9060016110ec565b90505b6001811115610bf0576f181899199a1a9b1b9c1cb0b131b232b360811b85600f1660108110610b9e57634e487b7160e01b600052603260045260246000fd5b1a60f81b828281518110610bc257634e487b7160e01b600052603260045260246000fd5b60200101906001600160f81b031916908160001a90535060049490941c93610be98161114f565b9050610b5f565b508315610c0f5760405162461bcd60e51b815260040161046990610e0f565b9392505050565b80356001600160a01b038116811461030557600080fd5b600060208284031215610c3e578081fd5b610c0f82610c16565b60008060408385031215610c59578081fd5b610c6283610c16565b9150610c7060208401610c16565b90509250929050565b600080600060608486031215610c8d578081fd5b610c9684610c16565b9250610ca460208501610c16565b9150604084013590509250925092565b60008060408385031215610cc6578182fd5b610ccf83610c16565b946020939093013593505050565b600060208284031215610cee578081fd5b5035919050565b60008060408385031215610d07578182fd5b82359150610c7060208401610c16565b600060208284031215610d28578081fd5b81356001600160e01b031981168114610c0f578182fd5b60007f416363657373436f6e74726f6c3a206163636f756e742000000000000000000082528351610d77816017850160208801611123565b7001034b99036b4b9b9b4b733903937b6329607d1b6017918401918201528351610da8816028840160208801611123565b01602801949350505050565b6001600160a01b0391909116815260200190565b901515815260200190565b90815260200190565b6000602082528251806020840152610dfb816040850160208701611123565b601f01601f19169190910160400192915050565b6020808252818101527f537472696e67733a20686578206c656e67746820696e73756666696369656e74604082015260600190565b60208082526023908201527f45524332303a207472616e7366657220746f20746865207a65726f206164647260408201526265737360e81b606082015260800190565b60208082526026908201527f4f776e61626c653a206e6577206f776e657220697320746865207a65726f206160408201526564647265737360d01b606082015260800190565b60208082526022908201527f45524332303a20617070726f766520746f20746865207a65726f206164647265604082015261737360f01b606082015260800190565b6020808252601d908201527f45524332303a20696e73756666696369656e7420616c6c6f77616e6365000000604082015260600190565b60208082526026908201527f45524332303a207472616e7366657220616d6f756e7420657863656564732062604082015265616c616e636560d01b606082015260800190565b6020808252818101527f4f776e61626c653a2063616c6c6572206973206e6f7420746865206f776e6572604082015260600190565b60208082526025908201527f45524332303a207472616e736665722066726f6d20746865207a65726f206164604082015264647265737360d81b606082015260800190565b60208082526024908201527f45524332303a20617070726f76652066726f6d20746865207a65726f206164646040820152637265737360e01b606082015260800190565b60208082526025908201527f45524332303a2064656372656173656420616c6c6f77616e63652062656c6f77604082015264207a65726f60d81b606082015260800190565b6020808252602f908201527f416363657373436f6e74726f6c3a2063616e206f6e6c792072656e6f756e636560408201526e103937b632b9903337b91039b2b63360891b606082015260800190565b60ff91909116815260200190565b600082198211156110ff576110ff6111a1565b500190565b600081600019048311821515161561111e5761111e6111a1565b500290565b60005b8381101561113e578181015183820152602001611126565b838111156107415750506000910152565b60008161115e5761115e6111a1565b506000190190565b60028104600182168061117a57607f821691505b6020821081141561119b57634e487b7160e01b600052602260045260246000fd5b50919050565b634e487b7160e01b600052601160045260246000fdfea2646970667358221220a5251486a31e0f444ba1285a33bdf1a5e3def0a05cc79db5f98a43b06550ba7164736f6c634300080100339f2df0fed2c77648de5860a4cc508cd0818c85b8b8a1ab4ceeef8d981c8956a6",
  "linkReferences": {},
  "deployedLinkReferences": {}
}